{
  "contractName": "OnlyFans",
  "abi": [
    {
      "inputs": [
        {
          "internalType": "bytes32",
          "name": "",
          "type": "bytes32"
        }
      ],
      "name": "isSubscribes",
      "outputs": [
        {
          "internalType": "bool",
          "name": "",
          "type": "bool"
        }
      ],
      "stateMutability": "view",
      "type": "function",
      "constant": true
    },
    {
      "inputs": [
        {
          "internalType": "bytes32",
          "name": "",
          "type": "bytes32"
        }
      ],
      "name": "subscribes",
      "outputs": [
        {
          "internalType": "enum OnlyFans.LicenseType",
          "name": "licenseType",
          "type": "uint8"
        },
        {
          "internalType": "uint256",
          "name": "expiresOn",
          "type": "uint256"
        }
      ],
      "stateMutability": "view",
      "type": "function",
      "constant": true
    },
    {
      "stateMutability": "payable",
      "type": "receive",
      "payable": true
    },
    {
      "inputs": [
        {
          "internalType": "address",
          "name": "_receiver",
          "type": "address"
        },
        {
          "internalType": "string",
          "name": "_subscriberId",
          "type": "string"
        },
        {
          "internalType": "string",
          "name": "_creatorId",
          "type": "string"
        },
        {
          "internalType": "uint256",
          "name": "_amount",
          "type": "uint256"
        },
        {
          "internalType": "uint256",
          "name": "_type",
          "type": "uint256"
        },
        {
          "internalType": "uint256",
          "name": "_lifeTime",
          "type": "uint256"
        }
      ],
      "name": "addNewSubscribe",
      "outputs": [],
      "stateMutability": "payable",
      "type": "function",
      "payable": true
    },
    {
      "inputs": [
        {
          "internalType": "string",
          "name": "_subscriberId",
          "type": "string"
        },
        {
          "internalType": "string",
          "name": "_creatorId",
          "type": "string"
        }
      ],
      "name": "checkSubscribe",
      "outputs": [
        {
          "internalType": "string",
          "name": "",
          "type": "string"
        }
      ],
      "stateMutability": "view",
      "type": "function",
      "constant": true
    }
  ],
  "bytecode": "0x6080604052600a600055600060035534801561001a57600080fd5b50610b708061002a6000396000f3fe6080604052600436106100435760003560e01c806381c667161461004f578063b18a1f501461006b578063be3b7c48146100a9578063fd7ea25f146100e65761004a565b3661004a57005b600080fd5b61006960048036038101906100649190610618565b610123565b005b34801561007757600080fd5b50610092600480360381019061008d9190610713565b6102aa565b6040516100a09291906107c6565b60405180910390f35b3480156100b557600080fd5b506100d060048036038101906100cb91906107ef565b6102db565b6040516100dd91906108ef565b60405180910390f35b3480156100f257600080fd5b5061010d60048036038101906101089190610713565b61040a565b60405161011a919061092c565b60405180910390f35b60008585604051602001610138929190610947565b604051602081830303815290604052805190602001209050604051806040016040528084600181111561016e5761016d610740565b5b60018111156101805761017f610740565b5b815260200162278d008461019491906109ad565b4261019f9190610a07565b8152506002600083815260200190815260200160002060008201518160000160006101000a81548160ff021916908360018111156101e0576101df610740565b5b021790555060208201518160010155905050600180600083815260200190815260200160002060006101000a81548160ff0219169083151502179055506003600081548092919061023090610a5d565b91905055508673ffffffffffffffffffffffffffffffffffffffff166108fc606460005460646102609190610aa6565b8761026b91906109ad565b6102759190610b09565b9081150290604051600060405180830381858888f193505050501580156102a0573d6000803e3d6000fd5b5050505050505050565b60026020528060005260406000206000915090508060000160009054906101000a900460ff16908060010154905082565b6060600083836040516020016102f2929190610947565b6040516020818303038152906040528051906020012090506001600082815260200190815260200160002060009054906101000a900460ff16156103ca57426002600083815260200190815260200160002060010154111561038c576040518060400160405280600581526020017f56414c4944000000000000000000000000000000000000000000000000000000815250915050610404565b6040518060400160405280600781526020017f4558504952454400000000000000000000000000000000000000000000000000815250915050610404565b6040518060400160405280600e81526020017f444f4553204e4f542045584953540000000000000000000000000000000000008152509150505b92915050565b60016020528060005260406000206000915054906101000a900460ff1681565b6000604051905090565b600080fd5b600080fd5b600073ffffffffffffffffffffffffffffffffffffffff82169050919050565b60006104698261043e565b9050919050565b6104798161045e565b811461048457600080fd5b50565b60008135905061049681610470565b92915050565b600080fd5b600080fd5b6000601f19601f8301169050919050565b7f4e487b7100000000000000000000000000000000000000000000000000000000600052604160045260246000fd5b6104ef826104a6565b810181811067ffffffffffffffff8211171561050e5761050d6104b7565b5b80604052505050565b600061052161042a565b905061052d82826104e6565b919050565b600067ffffffffffffffff82111561054d5761054c6104b7565b5b610556826104a6565b9050602081019050919050565b82818337600083830152505050565b600061058561058084610532565b610517565b9050828152602081018484840111156105a1576105a06104a1565b5b6105ac848285610563565b509392505050565b600082601f8301126105c9576105c861049c565b5b81356105d9848260208601610572565b91505092915050565b6000819050919050565b6105f5816105e2565b811461060057600080fd5b50565b600081359050610612816105ec565b92915050565b60008060008060008060c0878903121561063557610634610434565b5b600061064389828a01610487565b965050602087013567ffffffffffffffff81111561066457610663610439565b5b61067089828a016105b4565b955050604087013567ffffffffffffffff81111561069157610690610439565b5b61069d89828a016105b4565b94505060606106ae89828a01610603565b93505060806106bf89828a01610603565b92505060a06106d089828a01610603565b9150509295509295509295565b6000819050919050565b6106f0816106dd565b81146106fb57600080fd5b50565b60008135905061070d816106e7565b92915050565b60006020828403121561072957610728610434565b5b6000610737848285016106fe565b91505092915050565b7f4e487b7100000000000000000000000000000000000000000000000000000000600052602160045260246000fd5b600281106107805761077f610740565b5b50565b60008190506107918261076f565b919050565b60006107a182610783565b9050919050565b6107b181610796565b82525050565b6107c0816105e2565b82525050565b60006040820190506107db60008301856107a8565b6107e860208301846107b7565b9392505050565b6000806040838503121561080657610805610434565b5b600083013567ffffffffffffffff81111561082457610823610439565b5b610830858286016105b4565b925050602083013567ffffffffffffffff81111561085157610850610439565b5b61085d858286016105b4565b9150509250929050565b600081519050919050565b600082825260208201905092915050565b60005b838110156108a1578082015181840152602081019050610886565b838111156108b0576000848401525b50505050565b60006108c182610867565b6108cb8185610872565b93506108db818560208601610883565b6108e4816104a6565b840191505092915050565b6000602082019050818103600083015261090981846108b6565b905092915050565b60008115159050919050565b61092681610911565b82525050565b6000602082019050610941600083018461091d565b92915050565b6000604082019050818103600083015261096181856108b6565b9050818103602083015261097581846108b6565b90509392505050565b7f4e487b7100000000000000000000000000000000000000000000000000000000600052601160045260246000fd5b60006109b8826105e2565b91506109c3836105e2565b9250817fffffffffffffffffffffffffffffffffffffffffffffffffffffffffffffffff04831182151516156109fc576109fb61097e565b5b828202905092915050565b6000610a12826105e2565b9150610a1d836105e2565b9250827fffffffffffffffffffffffffffffffffffffffffffffffffffffffffffffffff03821115610a5257610a5161097e565b5b828201905092915050565b6000610a68826105e2565b91507fffffffffffffffffffffffffffffffffffffffffffffffffffffffffffffffff821415610a9b57610a9a61097e565b5b600182019050919050565b6000610ab1826105e2565b9150610abc836105e2565b925082821015610acf57610ace61097e565b5b828203905092915050565b7f4e487b7100000000000000000000000000000000000000000000000000000000600052601260045260246000fd5b6000610b14826105e2565b9150610b1f836105e2565b925082610b2f57610b2e610ada565b5b82820490509291505056fea26469706673582212205f24fd770e92476cc5a2e986b0726e791fcc79b72dd126e5bfd40ed53a9994f564736f6c63430008090033",
  "immutableReferences": {},
  "source": "// SPDX-License-Identifier: MIT\r\npragma solidity >=0.4.22 <0.9.0;\r\n\r\ncontract OnlyFans {\r\n    enum LicenseType {FREE, FEE}\r\n    uint constant LICENSE_LIFE_TIME = 30 days; \r\n    struct LicenseInfo {\r\n        LicenseType licenseType;\r\n        uint expiresOn;\r\n    } \r\n\r\n    receive() external payable {}\r\n    uint commissionPercentage = 10;\r\n    mapping(bytes32 => bool) public isSubscribes;\r\n    mapping(bytes32 => LicenseInfo) public subscribes;\r\n    uint256 totalSubscribe = 0;\r\n    \r\n    function addNewSubscribe(address _receiver, string memory _subscriberId, string memory _creatorId, uint _amount, uint _type,uint _lifeTime) external payable {\r\n        bytes32 index = keccak256(abi.encode(_subscriberId, _creatorId));\r\n        subscribes[index] = LicenseInfo(LicenseType(_type), block.timestamp + (_lifeTime * LICENSE_LIFE_TIME));\r\n        isSubscribes[index] = true; \r\n        totalSubscribe++;\r\n        payable(_receiver).transfer(_amount * (100 - commissionPercentage) / 100);\r\n    }\r\n\r\n    function checkSubscribe(string memory _subscriberId, string memory _creatorId ) external view returns (string memory){\r\n        bytes32 index = keccak256(abi.encode(_subscriberId, _creatorId));\r\n        if(isSubscribes[index]){\r\n            if(subscribes[index].expiresOn > block.timestamp){\r\n                return 'VALID';\r\n            }\r\n            else{\r\n                return 'EXPIRED';\r\n            }\r\n        } \r\n        return 'DOES NOT EXIST';\r\n    }\r\n    // ERC-20 functions\r\n    // function totalSupply() public view returns (uint256){\r\n    //     return totalSubscribe;\r\n    // }\r\n    // function balanceOf(address tokenOwner) public view returns (uint){}\r\n    // function allowance(address tokenOwner, address spender){}\r\n    // function transfer(address to, uint tokens) public returns (bool){}\r\n    // function approve(address spender, uint tokens)  public returns (bool){}\r\n    // function transferFrom(address from, address to, uint tokens) public returns (bool){}\r\n}",
  "sourcePath": "F:\\SmartContract\\FE-Onlyfans\\contracts\\OnlyFans.sol",
  "compiler": {
    "name": "solc",
    "version": "0.8.9+commit.e5eed63a.Emscripten.clang"
  },
  "schemaVersion": "3.4.4",
  "updatedAt": "2022-06-28T05:03:43.035Z",
  "networkType": "ethereum",
  "devdoc": {
    "kind": "dev",
    "methods": {},
    "version": 1
  },
  "userdoc": {
    "kind": "user",
    "methods": {},
    "version": 1
  }
}