{
  "contractName": "OnlyFans",
  "abi": [
    {
      "inputs": [
        {
          "internalType": "string",
          "name": "",
          "type": "string"
        }
      ],
      "name": "isSubscribes",
      "outputs": [
        {
          "internalType": "bool",
          "name": "",
          "type": "bool"
        }
      ],
      "stateMutability": "view",
      "type": "function",
      "constant": true
    },
    {
      "inputs": [
        {
          "internalType": "string",
          "name": "",
          "type": "string"
        }
      ],
      "name": "subscribes",
      "outputs": [
        {
          "internalType": "string",
          "name": "subscriberId",
          "type": "string"
        },
        {
          "internalType": "string",
          "name": "idolId",
          "type": "string"
        },
        {
          "internalType": "uint256",
          "name": "amount",
          "type": "uint256"
        },
        {
          "internalType": "uint256",
          "name": "date",
          "type": "uint256"
        }
      ],
      "stateMutability": "view",
      "type": "function",
      "constant": true
    },
    {
      "stateMutability": "payable",
      "type": "receive",
      "payable": true
    },
    {
      "inputs": [
        {
          "internalType": "address",
          "name": "receiver",
          "type": "address"
        },
        {
          "internalType": "string",
          "name": "subscriberId",
          "type": "string"
        },
        {
          "internalType": "string",
          "name": "idolId",
          "type": "string"
        },
        {
          "internalType": "uint256",
          "name": "amount",
          "type": "uint256"
        },
        {
          "internalType": "uint256",
          "name": "date",
          "type": "uint256"
        }
      ],
      "name": "addNewSubscribe",
      "outputs": [],
      "stateMutability": "payable",
      "type": "function",
      "payable": true
    },
    {
      "inputs": [
        {
          "internalType": "string",
          "name": "subscriberId",
          "type": "string"
        },
        {
          "internalType": "string",
          "name": "idolId",
          "type": "string"
        }
      ],
      "name": "checkSubscribe",
      "outputs": [
        {
          "internalType": "bool",
          "name": "",
          "type": "bool"
        }
      ],
      "stateMutability": "view",
      "type": "function",
      "constant": true
    }
  ],
  "bytecode": "0x6080604052600a60005534801561001557600080fd5b50610bcf806100256000396000f3fe6080604052600436106100435760003560e01c8063216459401461004f578063be3b7c481461008c578063bfdaa739146100c9578063c66694e4146100e55761004a565b3661004a57005b600080fd5b34801561005b57600080fd5b506100766004803603810190610071919061067c565b610125565b60405161008391906106e0565b60405180910390f35b34801561009857600080fd5b506100b360048036038101906100ae91906106fb565b61015b565b6040516100c091906106e0565b60405180910390f35b6100e360048036038101906100de9190610807565b6101c9565b005b3480156100f157600080fd5b5061010c6004803603810190610107919061067c565b610329565b60405161011c9493929190610951565b60405180910390f35b6001818051602081018201805184825260208301602085012081835280955050505050506000915054906101000a900460ff1681565b60008083836040516020016101719291906109e0565b60405160208183030381529060405290506001816040516101929190610a04565b908152602001604051809103902060009054906101000a900460ff16156101bd5760019150506101c3565b60009150505b92915050565b600084846040516020016101de9291906109e0565b60405160208183030381529060405290506040518060800160405280868152602001858152602001848152602001838152506002826040516102209190610a04565b9081526020016040518091039020600082015181600001908051906020019061024a92919061047f565b50602082015181600101908051906020019061026792919061047f565b506040820151816002015560608201518160030155905050600180826040516102909190610a04565b908152602001604051809103902060006101000a81548160ff0219169083151502179055508573ffffffffffffffffffffffffffffffffffffffff166108fc606460005460646102e09190610a4a565b866102eb9190610a7e565b6102f59190610b07565b9081150290604051600060405180830381858888f19350505050158015610320573d6000803e3d6000fd5b50505050505050565b60028180516020810182018051848252602083016020850120818352809550505050505060009150905080600001805461036290610b67565b80601f016020809104026020016040519081016040528092919081815260200182805461038e90610b67565b80156103db5780601f106103b0576101008083540402835291602001916103db565b820191906000526020600020905b8154815290600101906020018083116103be57829003601f168201915b5050505050908060010180546103f090610b67565b80601f016020809104026020016040519081016040528092919081815260200182805461041c90610b67565b80156104695780601f1061043e57610100808354040283529160200191610469565b820191906000526020600020905b81548152906001019060200180831161044c57829003601f168201915b5050505050908060020154908060030154905084565b82805461048b90610b67565b90600052602060002090601f0160209004810192826104ad57600085556104f4565b82601f106104c657805160ff19168380011785556104f4565b828001600101855582156104f4579182015b828111156104f35782518255916020019190600101906104d8565b5b5090506105019190610505565b5090565b5b8082111561051e576000816000905550600101610506565b5090565b6000604051905090565b600080fd5b600080fd5b600080fd5b600080fd5b6000601f19601f8301169050919050565b7f4e487b7100000000000000000000000000000000000000000000000000000000600052604160045260246000fd5b61058982610540565b810181811067ffffffffffffffff821117156105a8576105a7610551565b5b80604052505050565b60006105bb610522565b90506105c78282610580565b919050565b600067ffffffffffffffff8211156105e7576105e6610551565b5b6105f082610540565b9050602081019050919050565b82818337600083830152505050565b600061061f61061a846105cc565b6105b1565b90508281526020810184848401111561063b5761063a61053b565b5b6106468482856105fd565b509392505050565b600082601f83011261066357610662610536565b5b813561067384826020860161060c565b91505092915050565b6000602082840312156106925761069161052c565b5b600082013567ffffffffffffffff8111156106b0576106af610531565b5b6106bc8482850161064e565b91505092915050565b60008115159050919050565b6106da816106c5565b82525050565b60006020820190506106f560008301846106d1565b92915050565b600080604083850312156107125761071161052c565b5b600083013567ffffffffffffffff8111156107305761072f610531565b5b61073c8582860161064e565b925050602083013567ffffffffffffffff81111561075d5761075c610531565b5b6107698582860161064e565b9150509250929050565b600073ffffffffffffffffffffffffffffffffffffffff82169050919050565b600061079e82610773565b9050919050565b6107ae81610793565b81146107b957600080fd5b50565b6000813590506107cb816107a5565b92915050565b6000819050919050565b6107e4816107d1565b81146107ef57600080fd5b50565b600081359050610801816107db565b92915050565b600080600080600060a086880312156108235761082261052c565b5b6000610831888289016107bc565b955050602086013567ffffffffffffffff81111561085257610851610531565b5b61085e8882890161064e565b945050604086013567ffffffffffffffff81111561087f5761087e610531565b5b61088b8882890161064e565b935050606061089c888289016107f2565b92505060806108ad888289016107f2565b9150509295509295909350565b600081519050919050565b600082825260208201905092915050565b60005b838110156108f45780820151818401526020810190506108d9565b83811115610903576000848401525b50505050565b6000610914826108ba565b61091e81856108c5565b935061092e8185602086016108d6565b61093781610540565b840191505092915050565b61094b816107d1565b82525050565b6000608082019050818103600083015261096b8187610909565b9050818103602083015261097f8186610909565b905061098e6040830185610942565b61099b6060830184610942565b95945050505050565b600081905092915050565b60006109ba826108ba565b6109c481856109a4565b93506109d48185602086016108d6565b80840191505092915050565b60006109ec82856109af565b91506109f882846109af565b91508190509392505050565b6000610a1082846109af565b915081905092915050565b7f4e487b7100000000000000000000000000000000000000000000000000000000600052601160045260246000fd5b6000610a55826107d1565b9150610a60836107d1565b925082821015610a7357610a72610a1b565b5b828203905092915050565b6000610a89826107d1565b9150610a94836107d1565b9250817fffffffffffffffffffffffffffffffffffffffffffffffffffffffffffffffff0483118215151615610acd57610acc610a1b565b5b828202905092915050565b7f4e487b7100000000000000000000000000000000000000000000000000000000600052601260045260246000fd5b6000610b12826107d1565b9150610b1d836107d1565b925082610b2d57610b2c610ad8565b5b828204905092915050565b7f4e487b7100000000000000000000000000000000000000000000000000000000600052602260045260246000fd5b60006002820490506001821680610b7f57607f821691505b60208210811415610b9357610b92610b38565b5b5091905056fea2646970667358221220ec4631875f349c18fbb6c57ecad75342f38361ebabcb19618fb844bcfabe56ec64736f6c63430008090033",
  "immutableReferences": {},
  "source": "// SPDX-License-Identifier: MIT\r\npragma solidity >=0.4.22 <0.9.0;\r\n\r\ncontract OnlyFans {\r\n    struct Subscribe {\r\n        string subscriberId;\r\n        string idolId;\r\n        uint amount;\r\n        uint date;\r\n    }\r\n\r\n    receive() external payable {}\r\n    uint commissionPercentage = 10;\r\n    mapping(string => bool) public isSubscribes;\r\n    mapping(string => Subscribe) public subscribes;\r\n\r\n    function addNewSubscribe(address receiver, string memory subscriberId, string memory idolId, uint amount, uint date) external payable {\r\n        string memory index = string(abi.encodePacked(subscriberId, idolId));\r\n        subscribes[index] = Subscribe(subscriberId, idolId, amount, date);\r\n        isSubscribes[index] = true; \r\n        payable(receiver).transfer(amount * (100 - commissionPercentage) / 100);\r\n    }\r\n\r\n    function checkSubscribe(string memory subscriberId, string memory idolId) external view returns (bool){\r\n        string memory index = string(abi.encodePacked(subscriberId, idolId));\r\n        if(isSubscribes[index]){\r\n            return true;\r\n        } else {\r\n            return false;\r\n        }\r\n    }\r\n}",
  "sourcePath": "F:\\SmartContract\\FE-Onlyfans\\contracts\\OnlyFans.sol",
  "compiler": {
    "name": "solc",
    "version": "0.8.9+commit.e5eed63a.Emscripten.clang"
  },
  "schemaVersion": "3.4.4",
  "updatedAt": "2022-06-24T04:57:17.983Z",
  "networkType": "ethereum",
  "devdoc": {
    "kind": "dev",
    "methods": {},
    "version": 1
  },
  "userdoc": {
    "kind": "user",
    "methods": {},
    "version": 1
  }
}